:100000000C94E9010C941A020C941A020C941A0232
:100010000C941A020C941A020C941A020C941A02F0
:100020000C941A020C941A020C941A020C941A02E0
:100030000C941A020C941A020C941A020C941A02D0
:100040000C941A020C941A020C941A020C941A02C0
:100050000C941A020C941A020C941A020C94261393
:100060000C941A020C94FC120C94D2120C941A02E6
:100070000C941A020C941A020C941A020C941A0290
:100080000C941A020C941A020C941A020C941A0280
:100090000C94A8120C947E120C941A020C947013F7
:1000A0000C941A020C941A020C941A020C941A0260
:1000B0000C941A020C941A020C941A020C941A0250
:1000C0000C941A020C941A020C941A020C945412F6
:1000D0000C942A120C941A020C9400120C94D6114F
:1000E0000C941A020C9486040C94A9040C94B30486
:1000F0000C9482040C94B7040C946E070C94941422
:100100000C94A5040C94C1040C9475070C94FF0284
:100110000C945B070C9445030C9476030C94BD047B
:100120000C9454030C94EE020C944B070C94BC04F6
:100130000C94F0020C949B040C940A080C94B022CA
:100140000C948E040C94A1040C9468030C94AF04DA
:100150000C948A040C9497040C9491040C94A207B8
:100160000C94EF020C94CC030C94C90A0C947C04FC
:100170000C944C070C9419044E414E494E49545965
:10018000494E46CDCCCC3D0AD7233C17B7D1387762
:10019000CC2B329595E6241FB14F0A000020410078
:1001A00000C84200401C4620BCBE4CCA1B0E5AAEC2
:1001B000C59D7400407A10F35A00A0724E180900D1
:1001C00010A5D4E80000E87648170000E40B5402BC
:1001D0000000CA9A3B000000E1F5050000809698F7
:1001E00000000040420F000000A086010000001047
:1001F0002700000000E80300000000640000000089
:10020000000A00000000000100000000002C76D869
:1002100088DC674F0823DFC1DFAE59E1B1B796E54F
:10022000E3E453C63AE651997696E8E6C28426EBB3
:10023000898C9B62ED407C6FFCEFBC9C9F40F2BAC6
:10024000A56FA5F490055A2AF75C936B6CF9676D5E
:10025000C11BFCE0E40D47FEF520E6B500D0ED90B3
:100260002E0300943577050080841E080000204E80
:100270000A000000C80C333333330F986E12831119
:1002800041EF8D2114893BE65516CFFEE6DB18D1F0
:10029000844B381BF77C1D901DA4BBE424203284C2
:1002A000725E228100C9F124ECA1E53D2700002106
:1002B00000240027002A002D003000330001010037
:1002C00000040107010A0100002200250028002B7C
:1002D000002E003100340002010000050108010B6E
:1002E00001000020002300260029002C002F0032EE
:1002F00000000100000301060109010505050507CD
:100300000508080808020202020A0A080804040490
:1003100004010101010101010103030303030303BC
:1003200003040707070C0C0C0C0C0C0C0C0202024B
:100330000206060606060606060B0B0B0B0B0B0B3E
:100340000B010210202008081020401020408002DD
:10035000010201080402010102040810204080800B
:10036000402010080402018004020180402010088F
:100370000402010804020101020408102040800167
:100380000204081020408000000A0B02090C0D0E28
:100390000807030401000000000000000000000046
:1003A000000000000000000000000000000000004D
:1003B000000000121110000000000000000000000A
:1003C0000000000000000000000000000000941485
:1003D000B02211241FBECFEFD1E2DEBFCDBF00E0BF
:1003E0000CBF13E0A0E0B2E0E0E0F9E500E00BBFF5
:1003F00002C007900D92A239B107D9F729E0A2E90E
:10040000B3E001C01D92AE3BB207E1F711E0C8EEC8
:10041000D1E000E006C021970109802FFE010E9473
:10042000162AC73ED10780E00807A9F70E94931556
:100430000C946E2C0C9400000F931F93CF93DF93BA
:10044000EC019A01AB01E889F98982E08083EC85AF
:10045000FD8510820E851F8560E079E08DE390E0D8
:100460000E946B2821503109410951095695479541
:1004700037952795F8012083188EEC89FD8986E051
:100480008083EA89FB89808180618083EA89FB8996
:10049000808188608083EA89FB898081806880838D
:1004A000EA89FB8980818F7D8083DF91CF911F91C5
:1004B0000F910895CF92DF92EF92FF92CF93DF9347
:1004C000EC0180918109909182094FE6C42E42E1AE
:1004D000D42E43E0E42E40E4F42E811524E092076C
:1004E00071F190F4009709F45DC05FE6C52E52E10A
:1004F000D52E53E8E52E50E4F52E81159240F9F003
:10050000C12CD12C76011BC02FE6C22E22E1D22EA7
:1005100023E0E22E2FE3F22E811528E0920779F0F6
:1005200081152AE09207A9F18115964049F73FE627
:10053000C32E32E1D32E33E8E32E3FE3F32E209196
:10054000800960E070E880E090E004C095958795B0
:10055000779567952A95D2F70E942A279B01AC01CF
:10056000C701B6010E9409296B017C01BE01DD0FA4
:10057000880B990B0E942A279B01AC01C701B60189
:100580000E948927DF91CF91FF90EF90DF90CF906D
:1005900008959FE6C92E92E1D92E93E8E92E9EE3B5
:1005A000F92ECDCF86EAC82E8BE9D82E84ECE82E22
:1005B00080E4F82EC4CFFC0140815181FB012081F1
:1005C0003181241735073CF081E090E04217530752
:1005D00024F080E008958FEF9FEF08950895089527
:1005E0000895DB0114964D915C9115976D917C9166
:1005F000DC01ED91FC910280F381E02D1994AF9222
:10060000BF92CF92DF92EF92FF920F931F93CF93FF
:10061000DF936C017B018B01040F151FEB015E0161
:10062000AE18BF08C017D10759F06991D601ED91F6
:10063000FC910190F081E02DC6011995892B79F785
:10064000C501DF91CF911F910F91FF90EF90DF9047
:10065000CF90BF90AF900895FC01A089B1898C9193
:10066000A689B78982FD0FC09C91818D8F5F8F73A2
:10067000228D821749F0A18DAE0FBF2FB11D5D965F
:100680009C93818F08958C910895FC01538D448D26
:10069000252F30E0842F90E0821B930B541710F02D
:1006A000CF96089501970895FC01918D828D98173A
:1006B00061F0A28DAE0FBF2FB11D5D968C91928D12
:1006C0009F5F9F73928F90E008958FEF9FEF089543
:1006D000FC01918D828D981731F0828DE80FF11D0C
:1006E000858D90E008958FEF9FEF0895FC01918D27
:1006F000228D892F90E0805C9F4F821B91098F7320
:100700009927089586EE96E00E94760321E0892BD2
:1007100009F420E0822F089583E897E00E94760391
:1007200021E0892B09F420E0822F089580E298E0EF
:100730000E94760321E0892B09F420E0822F08959E
:100740008DEB98E00E94760321E0892B09F420E0EC
:10075000822F0895FC01A48DA80FB92FB11DA35AB3
:10076000BF4F2C91848D90E001968F739927848FD1
:10077000A689B7892C93A089B1898C9183708064F4
:100780008C93938D848D981306C00288F389E02D95
:1007900080818F7D80830895EF92FF920F931F9346
:1007A000CF93DF93EC0181E0888F9B8D8C8D981324
:1007B0001AC0E889F989808185FF15C09FB7F89430
:1007C000EE89FF896083E889F9898081837080647C
:1007D00080839FBF81E090E0DF91CF911F910F91C7
:1007E000FF90EF900895F62E0B8D10E00F5F1F4FD6
:1007F0000F731127E02E8C8D8E110CC00FB607FCE5
:10080000FACFE889F989808185FFF5CFCE010E9472
:10081000AA03F1CFEB8DEC0FFD2FF11DE35AFF4F33
:10082000F0829FB7F8940B8FEA89FB898081806200
:10083000CFCFCF93DF93EC01888D8823B9F0AA89BD
:10084000BB89E889F9898C9185FD03C0808186FD8B
:100850000DC00FB607FCF7CF8C9185FFF2CF8081DA
:1008600085FFEDCFCE010E94AA03E9CFDF91CF91A2
:10087000089580E090E0892B29F00E94A003811167
:100880000E94000080E090E0892B29F00E949603EE
:1008900081110E94000080E090E0892B29F00E94E5
:1008A0008C0381110E94000080E090E0892B29F0E8
:1008B0000E94820381110C940000089581508231BE
:1008C00008F05AC0E82FF0E08827E659FB4F8F4F19
:1008D0000C94162A8A048E047C0482048604BC04C8
:1008E000910497049B04A104A504A904AF04B304D4
:1008F000BC04B704BD04C104809180008F7780934D
:1009000080000895809180008F7DF9CF80918000D4
:10091000877FF5CF84B58F7784BD089584B58F7DAB
:10092000FBCF8091B0008F778093B00008958091C5
:10093000B0008F7DF9CF809190008F7780939000E9
:100940000895809190008F7DF9CF80919000877FEE
:10095000F5CF8091A0008F778093A00008958091BB
:10096000A0008F7DF9CF8091A000877FF5CF809187
:1009700020018F77809320010895809120018F7D41
:10098000F9CF80912001877FF5CFCF93DF93282F78
:1009900030E0F901E957FC4F8491F901EF5BFC4F1E
:1009A000D491F901E550FD4FC491CC23A1F0811100
:1009B0000E945E04EC2FF0E0EE0FFF1FEF51FD4FA1
:1009C000A591B491EC91ED2381E090E009F480E0F1
:1009D000DF91CF91089580E090E0FACF1F93CF93FD
:1009E000DF93282F30E0F901E957FC4F8491F9019A
:1009F000EF5BFC4FD491F901E550FD4FC491CC233E
:100A0000A9F0162F81110E945E04EC2FF0E0EE0F8A
:100A1000FF1FE953FD4FA591B4918FB7F894EC9166
:100A2000111108C0D095DE23DC938FBFDF91CF91E9
:100A30001F910895DE2BF8CFCF93DF9390E0FC0158
:100A4000EF5BFC4F249185509D4FFC0184918823DE
:100A5000D1F090E0880F991FFC01E355FD4FA5915F
:100A6000B491FC01E953FD4FC591D49161110EC0C1
:100A70009FB7F8948C91E22FE0958E238C93288178
:100A8000E223E8839FBFDF91CF9108958FB7F89459
:100A9000EC91E22BEC938FBFF6CF3FB7F8948091A7
:100AA000DB039091DC03A091DD03B091DE0326B55A
:100AB000A89B05C02F3F19F00196A11DB11D3FBF96
:100AC000BA2FA92F982F8827BC01CD01620F711D65
:100AD000811D911D42E0660F771F881F991F4A955F
:100AE000D1F708958F929F92AF92BF92CF92DF92EB
:100AF000EF92FF924B015C010E944D056B017C015E
:100B00000E944D056C197D098E099F09683E73404E
:100B100081059105A8F321E0821A9108A108B10886
:100B200088EEC80E83E0D81EE11CF11C81149104EC
:100B3000A104B10429F7FF90EF90DF90CF90BF9010
:100B4000AF909F908F9008952FB7F8946091D7033E
:100B50007091D8038091D9039091DA032FBF089543
:100B60000F931F93CF93DF93EC010E94A405688736
:100B700079878A879B87CE010E94540397FF15C00F
:100B80000E94A405088519852A853B85601B710B89
:100B9000820B930B0C811D812E813F8160177107A1
:100BA0008207930740F38FEF9FEFDF91CF911F9163
:100BB0000F9108952091B303260F3327331F21325D
:100BC0003105ECF42091BC06FC0190E080E024307B
:100BD00069F082E00895A091B3032191AC014D56D4
:100BE0005C4FA40FB52FB11D2C930196861798F377
:100BF0008091B303680F6093B30380E0089581E0B0
:100C000008951092BC0681E08093BB061092960670
:100C100061E084E10E94EE0461E085E10E94EE045F
:100C2000E9EBF0E080818E7F808380818D7F8083FF
:100C300088E48093B80085E48093BC000895CF9346
:100C4000DF9391E0909392038823B9F0C091B800AC
:100C5000D091BA008091BC008A7B8093BC0060E098
:100C600084E10E94EE0460E085E10E94EE040E94AF
:100C70000106D093BA00C093B800DF91CF910895D8
:100C80008F929F92AF92BF92CF92DF92EF92FF929C
:100C90000F931F93CF93DF93D091E506D13208F0E5
:100CA000D7C0182FC091E4060E944D056B017C014E
:100CB0008091BC0681116BC082E08093BC061093CA
:100CC000BB068FEF8093BA061092B906D093B80690
:100CD000A4ECB6E0E8E9F6E080E0D81391C0109209
:100CE000970680919706CC0FC82BC09397068091EA
:100CF0009606813009F088C0109296060E944D0534
:100D00006B017C01809197068093BB008091BE06A9
:100D10009091BF06A091C006B091C106892B8A2B85
:100D20008B2BA1F00E944D050091BE061091BF06CD
:100D30002091C0063091C1066C197D098E099F096A
:100D4000061717072807390708F442C08091BC002E
:100D500083FDD8CF85EC8093BC000E944D056B01CC
:100D60007C018091BC06823009F450C08091BA06A3
:100D70008F3F09F46FC08091BA06803209F46CC0CD
:100D80008091BA06803309F469C084E026C080915E
:100D9000BE069091BF06A091C006B091C106892BF6
:100DA0008A2B8B2B09F484CF0E944D058090BE06C0
:100DB0009090BF06A090C006B090C1066C197D0946
:100DC0008E099F0986169706A806B90608F070CF07
:100DD0008091BD060E941F0685E01092C306109206
:100DE000E5061092C206DF91CF911F910F91FF90FF
:100DF000EF90DF90CF90BF90AF909F908F9008952D
:100E00009D9191938F5F69CF85EEA5CF8091BE06AE
:100E10009091BF06A091C006B091C106892B8A2B84
:100E20008B2B09F49ECF0E944D050091BE061091B8
:100E3000BF062091C0063091C1066C197D098E094C
:100E40009F09061717072807390708F08ACFC0CF70
:100E500081E0C3CF80E0C1CF82E0BFCF83E0BDCFD0
:100E6000CF93DF93EA01DC0111968D919C91DC0117
:100E7000ED91FC910280F381E02D1995C817D907F7
:100E800029F481E00E94400691E0811190E0892FD1
:100E9000DF91CF9108950895E091750680917406D1
:100EA000E81730F4F0E0EA58F94F808190E00895B7
:100EB0008FEF9FEF089590917506809174062FEF44
:100EC0003FEF981748F4E92FF0E0EA58F94F2081F6
:100ED00030E09F5F90937506C90108958091740674
:100EE00090917506891B990B0895CF92DF92EF922E
:100EF000FF920F931F93CF93DF937C01CB018A0165
:100F00002091C206222389F0EB016B01C40ED51E8D
:100F1000CC15DD0569F06991D701ED91FC91019047
:100F2000F081E02DC7011995F3CF642F0E94DA05F7
:100F3000C801DF91CF911F910F91FF90EF90DF904B
:100F4000CF900895CF93DF931F92CDB7DEB769831B
:100F50002091C2062223F9F02091E506203258F0B4
:100F600021E030E0FC013383228390E080E00F90A9
:100F7000DF91CF9108958091C306E82FF0E0EC5304
:100F8000F94F998190838F5F8093C3068093E50624
:100F900081E090E0ECCF61E0CE0101960E94DA059D
:100FA000F7CFCF93DF93EC018B818823A1F0888169
:100FB00091E09093C2068093E4061092C3061092CB
:100FC000E50681E00E94400691E0811190E0892FC2
:100FD000DF91CF91089510927506109274061092C9
:100FE000C3061092E5060E9401068EEE92E09093F1
:100FF000E2038093E1038FEE92E09093E00380930D
:10100000DF0381E08B83CE010E94D107982F8111ED
:10101000CECFDDCF90E080E008958F929F92AF9287
:10102000BF92CF92DF92EF92FF920F931F93CF93D5
:101030008093850980917E0990917F09DC01149647
:101040002D913C911597232B81F02C9131E0309319
:10105000C2062093E4061092C3061092E50641E012
:1010600050E065E879E00E94300700917E09109118
:101070007F09F80184819581029708F4B3C0C0818B
:101080000E944D056B017C018091BC06811165C0F9
:1010900081E08093BC068093BB069FEF9093BA06D5
:1010A0001092B9068093B8068093970680919706B0
:1010B000CC0FC82BC093970680919606813009F01B
:1010C000A4C0109296060E944D056B017C01809190
:1010D00097068093BB008091BE069091BF06A091B9
:1010E000C006B091C106892B8A2B8B2BA1F00E94E0
:1010F0004D058090BE069090BF06A090C006B090AF
:10110000C1066C197D098E099F0986169706A806E7
:10111000B90608F443C08091BC0083FDD8CF85ECAC
:101120008093BC000E944D056B017C018091BC0640
:10113000813009F46CC08091B906823008F089C012
:101140008091B906A8E9B6E0E6E7F6E090E09817E6
:1011500051F12D9121939F5FFACF8091BE0690911E
:10116000BF06A091C006B091C106892B8A2B8B2B9C
:1011700009F48ACF0E944D058090BE069090BF066C
:10118000A090C006B090C1066C197D098E099F0918
:1011900086169706A806B90608F076CF8091BD0698
:1011A0000E941F0680E010927506809374068230BC
:1011B000C9F4D80111968D919C91DC01ED91FC91BF
:1011C0000284F385E02D199580938509F8018181CA
:1011D0009281DC01ED91FC910284F385E02D19955B
:1011E000809386098091850990918609982789279F
:1011F0009827CF911F910F91FF90EF90DF90CF90A4
:10120000BF90AF909F908F90089585EE89CF809189
:10121000BE069091BF06A091C006B091C106892B71
:101220008A2B8B2B09F482CF0E944D058090BE063D
:101230009090BF06A090C006B090C1066C197D09C1
:101240008E099F0986169706A806B90608F06ECF84
:10125000A5CF82E077CF209181093091820940911A
:10126000830950918409242B352B8230D9F12360D6
:101270003165306841E040938509309386092093B9
:10128000870980917E0990917F09FC012481358135
:101290002330310578F020814093C2062093E40684
:1012A0001092C3061092E50643E050E065E879E04D
:1012B0000E94300781E00E940D0897FFFBCF80E07D
:1012C0000E940D0820918009022E02C096958795F4
:1012D0000A94E2F7222329F08115F8E09F0708F02D
:1012E000906F089523603166C4CFCF93DF93EC01F4
:1012F00060E08E810E94EE0461E08E810E94EE0427
:1013000060E08E810E94EE048BE891E00197F1F796
:10131000DF91CF910895CF92DF92EF92FF920F93DA
:101320001F93CF93DF936C017C0187E0E80EF11CE3
:10133000D0E0C0E0062F10E0B8010C2E02C0759579
:1013400067950A94E2F76170F70181917F010E942D
:10135000EE042196C430D10579F7C601DF91CF9113
:101360001F910F91FF90EF90DF90CF900C94750933
:10137000CF92DF92EF92FF920F931F93CF93DF9361
:10138000EC01F62E642F8C810E94EE048D818F3F3C
:1013900019F060E00E94EE040F2D10E08F8584FFAD
:1013A00025C06E0187E0C80ED11CF12CE12CB801DC
:1013B0000E2C02C0759567950A94E2F76170F601EC
:1013C00081916F010E94EE04FFEFEF1AFF0A88E09F
:1013D000E816F10461F7CE01DF91CF911F910F91D3
:1013E000FF90EF90DF90CF900C947509B80184E0E6
:1013F000759567958A95E1F7CE010E948B096F2D4F
:10140000CE01DF91CF911F910F91FF90EF90DF9070
:10141000CF900C948B0940E0682F88E899E00C94F9
:10142000B80981E00E940B0A8BE39FE10197F1F775
:101430000895CF93DF93823029F4909197099860B3
:101440009093970980939B0910929C0980E4809364
:101450009D0980E180939E0980E580939F0961E06A
:1014600080918C090E941C0580918D098F3F19F095
:1014700061E00E941C0561E080918E090E941C05BC
:10148000C8E8D9E09E01285839408091970984FD29
:101490000BC084E090E021962817390744F461E0FE
:1014A0008E810E941C05EECF88E090E0F4CF8BE3A4
:1014B0009DE00197F1F760E080918C090E94EE04B5
:1014C00060E080918E090E94EE0480918D098F3F2B
:1014D00019F060E00E94EE048091970984FD34C009
:1014E00063E088E899E00E948B09CBE4D6E4CE0162
:1014F0000197F1F763E088E899E00E948B09219752
:10150000F1F763E088E899E00E948B0983E592E0B7
:101510000197F1F762E088E899E00E948B098091D9
:10152000970980620E940B0A84E0809398098CE0FE
:101530000E940B0A0E94110A82E08093990986E0BA
:10154000DF91CF910C940B0A80620E940B0A8BE40E
:1015500096E40197F1F78091970980620E940B0A47
:1015600083E592E00197F1F78091970980620E94EC
:101570000B0AD5CF90919B09691710F06FEF690F97
:10158000E62FF0E0E857F64F9489890F80680C94B5
:101590000B0A41E00E94B80981E090E00895CF92E3
:1015A000DF92EF92FF920F931F93CF93DF93EB01A4
:1015B0007B0124E0E20EF11C8B016C01C61AD70AF4
:1015C000C601800F911F0E944A28F80181938F0164
:1015D000EE15FF05A9F7CE01DF91CF911F910F9175
:1015E000FF90EF90DF90CF900895FB0101900020D5
:1015F000E9F73197AF01461B570BDC01ED91FC91E8
:101600000280F381E02D19948F929F92AF92BF9246
:10161000EF92FF920F931F93CF93DF93CDB7DEB777
:10162000A1970FB6F894DEBF0FBECDBF7C01FA01C3
:10163000CB0119A2223008F42AE08E010F5D1F4F62
:10164000822E912CB12CA12CBF01A50194010E94E6
:101650006B28F901CA016A300CF5605DD8016E9300
:101660008D01232B242B252B79F790E080E0109718
:1016700021F0BD01C7010E94F50AA1960FB6F894AA
:10168000DEBF0FBECDBFDF91CF911F910F91FF90B5
:10169000EF90BF90AF909F908F900895695CDECFE0
:1016A000CF92DF92EF92FF926C01990FEE08FF0844
:1016B000F7FE18C041E06DE288E899E00E94B809A1
:1016C00044275527BA014C195D096E097F092AE0A4
:1016D00088E899E00E94040B0196FF90EF90DF905C
:1016E000CF9008952AE0B701A60188E899E0FF901D
:1016F000EF90DF90CF900C94040B2F923F924F927B
:101700005F926F927F928F929F92AF92BF92CF9291
:10171000DF92EF92FF921F93CF93DF93EC016A0168
:101720007B01722EAB019601CB01B6010E94FC2910
:1017300064E472E0811126C046015701E894B7F8CD
:101740002FEF3FEF4FE75FE7C501B4010E94FC298F
:1017500081110CC02FEF3FEF4FE75FE7C501B401E8
:101760000E94232768E472E0181664F02FEF3FEF21
:101770004FE75FE4C701B6010E94B1291816B4F41F
:101780006CE472E0CE01DF91CF911F91FF90EF905A
:10179000DF90CF90BF90AF909F908F907F906F9091
:1017A0005F904F903F902F900C94F50A2FEF3FEFF2
:1017B0004FE75FECC701B6010E94232787FDE0CF0A
:1017C00020E030E0A901C701B6010E942327312C97
:1017D000212C87FF0DC0E881F9810190F081E02D77
:1017E0006DE2CE0119951C01F7FAF094F7F8F09428
:1017F00010E060E070E080E09FE3711641F020E0CF
:1018000030E040E251E40E9409291F5FF6CFA701B2
:1018100096010E949D282B013C010E9482294B01C8
:101820005C012AE0BC01A401CE010E94040B7C01F2
:10183000E20CF31C1123E1F1C501B4010E94282739
:101840009B01AC01C301B2010E949C284B015C01C9
:10185000E881F9810190F081E02D6EE2CE011995C9
:10186000E80EF91E115020F120E030E040E251E492
:10187000C501B4010E9489272B013C010E948229E5
:101880004B01B12CA12C2AE0B501A401CE010E948C
:10189000040BE80EF91EC501B4010E9428279B0124
:1018A000AC01C301B2010E949C284B015C01DACF5C
:1018B000C701DF91CF911F91FF90EF90DF90CF9004
:1018C000BF90AF909F908F907F906F905F904F9060
:1018D0003F902F900895CF93DF93AB01BC0122E09E
:1018E0008DEB98E00E947D0BEC0160E572E08DEBE2
:1018F00098E00E94F50A8C0F9D1FDF91CF9108950B
:101900000F931F93CF93DF93EC010E94F50A8C0194
:1019100060E572E0CE010E94F50A800F911FDF9111
:10192000CF911F910F9108950F931F93CF93DF9342
:10193000EC010E94F1028C0160E572E0CE010E9490
:10194000F50A800F911FDF91CF911F910F9108959C
:10195000FC0180819181009711F00C94DE2260E0FF
:1019600070E0CB010895AF92BF92CF92DF92EF92D9
:10197000FF920F931F93CF93DF93DC01CD90DC9008
:101980001197C114D10439F01496CD91DC918C01DA
:101990007601209761F4DF91CF911F910F91FF9015
:1019A000EF90DF90CF90BF90AF90089575015701F1
:1019B000BFEFAB1ABB0AF7018081082E000C990B10
:1019C0000E94F226892B91F72197CC0DDD1D88818D
:1019D000082E000C990B0E94F226892B29F0CE15B7
:1019E000DF0510F02197F3CFAE014F5F5F4F4E1927
:1019F0005F09D80115965C934E931497CE14DF04BB
:101A000020F4B701C6010E942C2CD801ED91FC9165
:101A1000119714968D919C91E80FF91F1082BBCFFE
:101A2000CF93DF93FC01C081D181209761F0899130
:101A3000882349F0082E000C990B0E94242CFE01EB
:101A400031978083F4CFDF91CF910895CF93DF93C7
:101A5000DC011496ED91FC916E177F0728F5411576
:101A6000510511F19F01261B370B4217530708F44C
:101A70009A01DB01EC0188819981E21BF30BFD8364
:101A8000EC83AF01461B570B260F371FBC01620FBB
:101A9000731F8A0F9B1F0E94452CE881F9818C815E
:101AA0009D81E80FF91F1082DF91CF910895CF93A8
:101AB000DF93DC0114962D913C911597232B79F03F
:101AC000FB01CD91DC9160817181CE010E94542C8B
:101AD000009729F08C1B9D0BDF91CF9108958FEF1C
:101AE0009FEFFACFFC0124813581232B39F421E0CB
:101AF000FB018081882349F020E007C0808191812B
:101B00000E94352C21E0892BB9F7822F08950F937D
:101B10001F93CF93DF938C01EB01FC0180819181B6
:101B20000097E1F06881798161157105A9F0428122
:101B300053812C813D814217530770F00E943E2C47
:101B40008C819D81F801958384831D821C82DF91A5
:101B5000CF911F910F9108950E94BA2A888199818F
:101B6000F801918380838A819B81938382838C8116
:101B70009D8195838483198218821B821A82E5CF06
:101B8000CF93DF93EC0188819981009711F00E9437
:101B9000BA2A198218821D821C821B821A82DF9146
:101BA000CF910895FC0180819181009711F00C94F0
:101BB000BA2A08950F931F93CF93DF93EC01888186
:101BC0009981009759F02A813B812617370730F019
:101BD00081E0DF91CF911F910F9108958B016F5F8D
:101BE0007F4F0E94432B009759F0998388831B8372
:101BF0000A832C813D81232B59F7FC011082E8CF09
:101C000080E0E7CFEF92FF920F931F93CF93DF9384
:101C10006115710541F480E0DF91CF911F910F9123
:101C2000FF90EF90089541155105B1F07B01EC0153
:101C30000C811D81040F151FB8010E94DA0D882345
:101C400051F3288139818C819D81B701820F931FC7
:101C50000E943E2C1D830C8381E0DECFCF93DF9367
:101C6000EC01FB0101900020E9F73197AF01461B21
:101C7000570B0E94020E811103C0CE010E94C00DBD
:101C8000CE01DF91CF910895CF93DF93EC01FB015B
:101C900044815581608171810E94020E811103C0CF
:101CA000CE010E94C00DCE01DF91CF910895CF9358
:101CB000DF931F921F92CDB7DEB769831A8241E08E
:101CC00050E0BE016F5F7F4F0E94020E0F900F9099
:101CD000DF91CF910895EF92FF920F931F93CF93CF
:101CE000DF93EC017B018A01BA010E94DA0D8111B8
:101CF0000BC0CE010E94C00DCE01DF91CF911F918C
:101D00000F91FF90EF9008951D830C83B701888198
:101D100099810E943E2CF0CFFB0101900020E9F751
:101D20003197AF01461B570B0C946B0E0F931F930B
:101D3000CF93DF93CDB7DEB762970FB6F894DEBFCF
:101D40000FBECDBF8C01CB01F8011182108213822E
:101D50001282158214824AE0BE016F5F7F4F0E949B
:101D60000923BE016F5F7F4FC8010E948C0E6296EF
:101D70000FB6F894DEBF0FBECDBFDF91CF911F919C
:101D80000F910895CF93DF93EC01FB01861797071E
:101D900049F0608171816115710541F0448155817F
:101DA0000E946B0ECE01DF91CF9108950E94C00D6D
:101DB000F9CFFC01118210821382128215821482E3
:101DC0000C94C20E0F931F93CF93DF9300D000D0DB
:101DD000CDB7DEB78C010E94B30CF8014481558168
:101DE0004450510970E060E0C8010E94260DB8011E
:101DF000CE0101960E94D90E49815A81ED81FE8162
:101E000030E020E010E000E02E173F07E9F180E02D
:101E10004115510521F0DA01A20FB31F8C91682FF3
:101E2000082E000C770BDB01D0971A97F8F0CB0146
:101E3000BC01615471096630710508F4C797BC0193
:101E40006156710966307105D0F48755910980316A
:101E5000910514F08FE090E064E0000F111F6A9587
:101E6000E1F7080F191F2F5F3F4FCECF082E000C50
:101E7000990BAA0BBB0BC097A109B109D9CF97FF4A
:101E8000E6CF90E080E0E8CFCE0101960E94D20D2F
:101E9000B801110F880B990B0E942A2720E030E02F
:101EA00040E251E40E9489270E947B290E942A2750
:101EB00020E030E04AEF56E40E94092926960FB64A
:101EC000F894DEBF0FBECDBFDF91CF911F910F9170
:101ED0000895FC01118210821382128215821482ED
:101EE0006115710551F0FB0101900020E9F7319770
:101EF000AF01461B570B0C946B0E0895AF92BF9227
:101F0000CF92DF92EF92FF920F931F93CF93DF93C5
:101F10006C015B017A0189012417350720F48F2DAC
:101F20007901042F182F62E572E0C6010E94690F43
:101F3000D5011496CD91DC91EC16FD06E0F40C175A
:101F40001D0708F4E801D501ED91FC911197EC0F04
:101F5000FD1F108110826D917C916E0D7F1DC60159
:101F600061157105A1F00E948C0EF50180819181AF
:101F7000C80FD91F1883C601DF91CF911F910F9110
:101F8000FF90EF90DF90CF90BF90AF9008950E94A8
:101F9000C00DEBCFCF92DF92EF92FF920F931F9382
:101FA000CF93DF93CDB7DEB762970FB6F894DEBF5D
:101FB0000FBECDBF6C018B017A0162E572E0CE01EC
:101FC0000D960E94690F62E572E0C8010E94720DD1
:101FD00081112EC0B601CE0107960E94960E63E5D0
:101FE00072E0CE0101960E94690FBE01695F7F4FCA
:101FF000CE0101960E94440E65E572E00E942E0E0D
:10200000B8010E94440E65E572E00E942E0E63E561
:1020100072E00E942E0EBC01CE010D960E94C20EEF
:10202000CE0101960E94D20DCE0107960E94D20DDC
:1020300062E572E0C7010E94720D811135C0B601E0
:10204000CE0107960E94960E63E572E0CE010196DE
:102050000E94690FBE01695F7F4FCE0101960E9409
:10206000440E65E572E00E942E0EB8010E94440EF7
:1020700065E572E00E942E0EB7010E94440E65E5F0
:1020800072E00E942E0E63E572E00E942E0EBC01EB
:10209000CE010D960E94C20ECE0101960E94D20D75
:1020A000CE0107960E94D20DBE01635F7F4F8DEB7C
:1020B00098E00E94940CCE010D960E94D20D62967B
:1020C0000FB6F894DEBF0FBECDBFDF91CF911F9149
:1020D0000F91FF90EF90DF90CF900895EF92FF92D5
:1020E0000F931F93CF93DF93CDB7DEB7A1970FB6B2
:1020F000F894DEBF0FBECDBF7C01CB01BA01F70162
:1021000011821082138212821582148242E0420FE1
:102110008E010F5F1F4F0E94C022009789F0BC0103
:10212000C7010E948C0EA1960FB6F894DEBF0FBEB9
:10213000CDBFDF91CF911F910F91FF90EF90089548
:10214000C7010E94C00DEFCF85ED8093BC00809148
:10215000BE069091BF06A091C006B091C106079639
:10216000A11DB11D23E0B695A795979587952A9552
:10217000D1F72091BC0024FD03C01092BC06089545
:102180004091BE065091BF066091C0067091C10695
:10219000452B462B472B69F30097A105B10541F06C
:1021A00025E32A95F1F700000197A109B109E1CFD4
:1021B0008091BD060C941F069F92AF92BF92CF9262
:1021C000DF92EF92FF920F931F93CF93DF935C0107
:1021D0007B018B01D0E0C0E0F80191908F01650197
:1021E000CC0EDD1EC6010E944A28981621F0692DEA
:1021F000C6010E9452282196C430D10569F7C70153
:10220000DF91CF911F910F91FF90EF90DF90CF90D2
:10221000BF90AF909F9008958091B5049091B604BF
:10222000A091B704B091B80480930002909301028A
:10223000A0930202B093030260E072E08CE190E0B0
:102240000C94DC108091B5049091B604A091B70471
:10225000B091B8048093B1049093B204A093B304F6
:10226000B093B40461EB74E088E190E00C94DC106E
:10227000CF92DF92EF92FF920F931F93CF93DF9352
:10228000CDB7DEB767970FB6F894DEBF0FBECDBFF0
:102290008C01CB01BA0120E030E040E251E40E9421
:1022A000092920E030E04AEF56E40E9489276B01BB
:1022B0007C0120E030E0A9010E94B12920E030E05B
:1022C00040E05FE387FD3CC0C701B6010E949D2846
:1022D0000E947B29CB011B8A1A8A1D8A1C8A1F8AAD
:1022E0001E8A40E1BE016F5F7F4F0E942923BE011D
:1022F0006F5F7F4FCE0142960E948C0EBE016E5ED4
:102300007F4F8DEB98E00E94940C8E899F890497F3
:10231000E4F46AEC72E0CE0101960E94690FBE01FE
:102320006E5E7F4FCE0101960E94440EBC01CE012D
:1023300042960E94C20ECE0101960E94D20DE5CFB8
:10234000C701B6010E949C28C3CFCE0142960E94CD
:10235000100D68E779E0CE0101960E94D90EBE010A
:102360006E5E7F4FCE0101960E94440E60E572E0E2
:102370000E942E0EBC01C8010E94D90ECE0101960A
:102380000E94D20DCE0142960E94D20DC8016796DE
:102390000FB6F894DEBF0FBECDBFDF91CF911F9176
:1023A0000F91FF90EF90DF90CF9008951F920F92C2
:1023B0000FB60F9211240BB60F922F933F934F93AA
:1023C0005F936F937F938F939F93AF93BF93EF939D
:1023D000FF9386EE96E00E94AA03FF91EF91BF91D2
:1023E000AF919F918F917F916F915F914F913F91AD
:1023F0002F910F900BBE0F900FBE0F901F9018954E
:102400001F920F920FB60F9211240BB60F922F93BB
:102410003F934F935F936F937F938F939F93AF936C
:10242000BF93EF93FF9386EE96E00E942C03FF91FB
:10243000EF91BF91AF919F918F917F916F915F913C
:102440004F913F912F910F900BBE0F900FBE0F90A9
:102450001F9018951F920F920FB60F9211240BB672
:102460000F922F933F934F935F936F937F938F932D
:102470009F93AF93BF93EF93FF9383E897E00E94FE
:10248000AA03FF91EF91BF91AF919F918F917F919F
:102490006F915F914F913F912F910F900BBE0F90D5
:1024A0000FBE0F901F9018951F920F920FB60F92AC
:1024B00011240BB60F922F933F934F935F936F931B
:1024C0007F938F939F93AF93BF93EF93FF9383E893
:1024D00097E00E942C03FF91EF91BF91AF919F91E4
:1024E0008F917F916F915F914F913F912F910F90BD
:1024F0000BBE0F900FBE0F901F9018951F920F925A
:102500000FB60F9211240BB60F922F933F934F9358
:102510005F936F937F938F939F93AF93BF93EF934B
:10252000FF9380E298E00E94AA03FF91EF91BF9190
:10253000AF919F918F917F916F915F914F913F915B
:102540002F910F900BBE0F900FBE0F901F901895FC
:102550001F920F920FB60F9211240BB60F922F936A
:102560003F934F935F936F937F938F939F93AF931B
:10257000BF93EF93FF9380E298E00E942C03FF91BA
:10258000EF91BF91AF919F918F917F916F915F91EB
:102590004F913F912F910F900BBE0F900FBE0F9058
:1025A0001F9018951F920F920FB60F9211240BB621
:1025B0000F922F933F934F935F936F937F938F93DC
:1025C0009F93AF93BF93EF93FF938DEB98E00E949F
:1025D000AA03FF91EF91BF91AF919F918F917F914E
:1025E0006F915F914F913F912F910F900BBE0F9084
:1025F0000FBE0F901F9018951F920F920FB60F925B
:1026000011240BB60F922F933F934F935F936F93C9
:102610007F938F939F93AF93BF93EF93FF938DEB34
:1026200098E00E942C03FF91EF91BF91AF919F9191
:102630008F917F916F915F914F913F912F910F906B
:102640000BBE0F900FBE0F901F9018951F920F9208
:102650000FB60F9211242F933F938F939F93AF93B5
:10266000BF938091D7039091D803A091D903B091E3
:10267000DA033091D60323E0230F2D3758F5019666
:10268000A11DB11D2093D6038093D7039093D80347
:10269000A093D903B093DA038091DB039091DC031C
:1026A000A091DD03B091DE030196A11DB11D8093C1
:1026B000DB039093DC03A093DD03B093DE03BF91B3
:1026C000AF919F918F913F912F910F900FBE0F90DF
:1026D0001F90189526E8230F0296A11DB11DD2CF99
:1026E0001F920F920FB60F9211240BB60F922F93D9
:1026F0003F934F935F936F937F938F939F93AF938A
:10270000BF93EF93FF938091B900887F803609F4DF
:102710004DC008F040C0883209F4A9C028F58031C6
:1027200009F49DC0C8F4882309F4FBC0883009F47B
:1027300096C0FF91EF91BF91AF919F918F917F9143
:102740006F915F914F913F912F910F900BBE0F9022
:102750000FBE0F901F901895883109F488C0803201
:1027600041F78093BA0614C0803409F49DC040F448
:102770008033B9F38833E9F68093BA0685ECB0C0AC
:10278000803509F485C0883509F496C0883489F607
:102790000E94A410CECF883909F48CC038F5883750
:1027A00029F050F4883611F0803719F683E08093D1
:1027B000BC061092D50357C0883809F47BC0803915
:1027C00019F0803809F0B5CF8091D503803208F038
:1027D00071C0E091D50381E08E0F8093D503809185
:1027E000BB00F0E0EB54FC4F80833DC0803B39F0F0
:1027F000E0F4803A09F479C0883A09F09ACF84E08D
:102800008093BC061092B4031092B303E091E103ED
:10281000F091E20319958091B30381110FC081E01B
:102820008093B3031092930309C0803C09F4A6CFB0
:10283000883C09F4A3CF883B09F07BCFE091B40337
:1028400081E08E0F8093B403F0E0ED56FC4F808161
:102850008093BB009091B4038091B30329C0809111
:1028600097068093BB0085EC8093BC0062CF90916B
:10287000B9068091B806981758F5E091B90681E03D
:102880008E0F8093B906F0E0E856F94F8081E9CFCA
:10289000E091B90681E08E0F8093B9068091BB006C
:1028A000F0E0E856F94F80839091B9068091B80620
:1028B0009817C8F285E8D8CFE091B90681E08E0F6D
:1028C0008093B9068091BB00F0E0E856F94F808311
:1028D0008091BB0681115CCF81E08093960684EAEB
:1028E0008093BC001092BC0624CF85EC8093BC0082
:1028F0001092BC068091D503803230F4E091D5036C
:10290000F0E0EB54FC4F10826091D50370E0E09151
:10291000DF03F091E00385EB93E019951092D50366
:1029200008CF1092BA0634CFE6EEF6E01382128298
:1029300088EE93E0A0E0B0E084839583A683B7831C
:1029400028E132E03183208345E351E05587448715
:1029500044E351E05787468740E351E0518B408B79
:1029600041E351E0538B428B42E351E0558B448B62
:1029700046E351E0578B468B118E128E138E148EC8
:10298000E3E8F7E01382128284839583A683B783FA
:102990003183208345ED50E05587448744ED50E076
:1029A0005787468740ED50E0518B408B41ED50E01A
:1029B000538B428B42ED50E0558B448B46ED50E0FB
:1029C000578B468B118E128E138E148EE0E2F8E038
:1029D0001382128284839583A683B78331832083F5
:1029E0004DEC50E0558744874CEC50E057874687C4
:1029F00048EC50E0518B408B49EC50E0538B428BBC
:102A00004AEC50E0558B448B4EEC50E0578B468B94
:102A1000118E128E138E148EEDEBF8E0138212825B
:102A200084839583A683B7833183208325EC30E0AC
:102A30003587248724EC30E03787268720EC30E088
:102A4000318B208B21EC30E0338B228B22EC30E079
:102A5000358B248B26EC30E0378B268B118E128E33
:102A6000138E148EEAE5F9E0138212828483958333
:102A7000A683B7838AE292E091838083E0EAF9E05B
:102A8000108211821282138210861186128613869A
:102A90001486158616861786108A118A128A138A5A
:102AA000148A158A168A178AE8E8F9E013821282D6
:102AB0008CE392E09183808386E184838FEF85832A
:102AC00087E1868388E1878389E180878AE181873E
:102AD0008BE182871386148615861686178681E019
:102AE0000E94190AEEE7F9E012821482138280E84C
:102AF00090E09683858367E572E088E799E00E941D
:102B0000690F63E672E082E799E00E94690F6AE666
:102B100072E08CE699E00E94690F63E772E086E656
:102B200099E00C94690FCF93DF93CDB7DEB7C8540B
:102B3000D1090FB6F894DEBF0FBECDBF789484B52F
:102B4000826084BD84B5816084BD85B5826085BDA9
:102B500085B5816085BD80916E00816080936E0037
:102B60001092810080918100826080938100809129
:102B700081008160809381008091800081608093DA
:102B800080008091B10084608093B1008091B0009A
:102B900081608093B0008091910082608093910069
:102BA000809191008160809391008091900081607C
:102BB000809390008091A10082608093A100809119
:102BC000A10081608093A1008091A000816080932A
:102BD000A0008091210182608093210180912101D8
:102BE0008160809321018091200181608093200188
:102BF00080917A00846080937A0080917A0082606C
:102C000080937A0080917A00816080937A0080912D
:102C10007A00806880937A001092C10040E855E203
:102C200060E070E08DEB98E00E941C0282E00E9460
:102C3000190A80E094E0909382098093810986E0EC
:102C400090E00E941E2A8C0188E4D8018C938AE5CA
:102C500099E012969C938E93119713961C9213975A
:102C600080E290E015969C938E93149710937F09C1
:102C700000937E0910927506109274061092C30696
:102C80001092E5060E9401068EEE92E09093E20318
:102C90008093E1038FEE92E09093E0038093DF0353
:102CA00081E0F8018383C8010E94D10740E056E922
:102CB00060E070E080E298E00E941C0240E056E98B
:102CC00060E070E083E897E00E941C0240E05BE473
:102CD00060E070E086EE96E00E941C021092A0096F
:102CE0001092A1091092A2091092A3091092A809AA
:102CF0001092A9091092AA091092AB091092AC097E
:102D00001092AD091092AE091092AF091092B0095D
:102D10001092B1091092B2091092B3091092B4093D
:102D20001092B5091092B6091092B70960E086E0DA
:102D30000E941C0560E087E00E941C0560E088E0BE
:102D40000E941C0560E089E00E941C0560E08AE0AA
:102D50000E941C0560E08BE00E941C0561E08CE194
:102D60000E941C0561E08CE10E94EE0440E050E00E
:102D7000BA01CE0101960E943811BE016F5F7F4FEC
:102D800083E897E00E94940CCE0101960E94D20D38
:102D900040E050E0BA01CE0101960E943811BE0118
:102DA0006F5F7F4F80E298E00E94940CCE01019605
:102DB0000E94D20D10925E064091080250910902C5
:102DC00060910A0270910B0222E0CE0101960E94EE
:102DD0006E1067E772E0CE0107960E94690FBE0190
:102DE0006F5F7F4FCE0107960E94440EBC018DEBB2
:102DF00098E00E94940CCE0107960E94D20DCE015D
:102E000001960E94D20D88E190E00E944A288F3FEF
:102E100031F461EB74E088E190E00E94DC108CE119
:102E200090E00E944A288F3F31F460E072E08CE12C
:102E300090E00E94DC1080E290E00E944A288F3FE0
:102E400031F468E072E080E290E00E94DC1061EB17
:102E500074E088E190E00E94CF0A60E072E08CE1CB
:102E600090E00E94CF0A68E072E080E290E00E9469
:102E7000CF0A409108025091090260910A027091B4
:102E80000B0222E0CE0101960E946E1067E772E00D
:102E9000CE0107960E94690FBE016F5F7F4FCE0182
:102EA00007960E94440EBC018DEB98E00E94940CA2
:102EB000CE0107960E94D20DCE0101960E94D20D3E
:102EC00088EA91E6A0E0B0E08093040290930502C6
:102ED000A0930602B09307028AE999E9A9E1BEE34B
:102EE00080934B0690934C06A0934D06B0934E06EC
:102EF00080910D028823A9F00E94A40561317742D8
:102F00008105910570F06BE772E080E298E00E9425
:102F1000800C6BE772E083E897E00E94800C1092CF
:102F20000D028DEB98E00E947603892B09F450C1C5
:102F300062E572E0CE01C1960E94690F8DEB98E0C8
:102F40000E94B00597FD09C08A30910531F0682FC5
:102F5000CE01C1960E94570EF1CFCE01C1960E94BC
:102F6000B30C21E030E050E040E0BE016F5C7F4FE9
:102F7000CE018B960E947E0F2DA93EA9A90141503A
:102F80005109BE016F5C7F4FCE0185960E947E0F76
:102F900069E872E0CE018B960E94720D182F69E8E5
:102FA00072E0CE0185960E94720D812309F404C15E
:102FB0002DA93EA92150310941E050E0BE016F5CCE
:102FC0007F4FCE014F960E947E0F6BE872E08DEB33
:102FD00098E00E94F50ABE01615E7F4F8DEB98E09C
:102FE0000E94940C62E572E0CE0149960E94690F3E
:102FF00062E572E0CE0143960E94690F65E572E0DA
:10300000CE0101960E94690FBE016F5F7F4FCE0116
:103010004F960E94570D8C01CE0101960E94D20D51
:1030200017FD3BC265E572E0CE0101960E94690F73
:10303000BE016F5F7F4FCE014F960E94570D9C01DE
:1030400050E040E0BE01615E7F4FCE0107960E94D6
:103050007E0F8F819885009709F415C20E94E222A5
:103060008B01CE0107960E94D20DCE0101960E94DF
:10307000D20D65E572E0CE0101960E94690FBE0196
:103080006F5F7F4FCE014F960E94570DAC014F5F8F
:103090005F4F70E060E0CE014F960E94260DCE019A
:1030A00001960E94D20D65E572E0CE0101960E9464
:1030B000690FBE016F5F7F4FCE014F960E94570D83
:1030C0007C01CE0101960E94D20DF7FCE0C165E5BE
:1030D00072E0CE0101960E94690FBE016F5F7F4FC3
:1030E000CE014F960E94570D9C0150E040E0BE017A
:1030F000615E7F4FCE0107960E947E0FBE01695F21
:103100007F4FCE0149960E94870DCE0107960E94FF
:10311000D20DCE0101960E94D20D65E572E0CE017E
:1031200001960E94690FBE016F5F7F4FCE014F96DF
:103130000E94570DAC014F5F5F4F70E060E0CE0121
:103140004F960E94260DCE0101960E94D20DBE011F
:10315000615E7F4FCE0143960E94C20ECE0149961A
:103160000E94100D0E94110AC8010E94500B61E0DC
:1031700080E00E94BA0ABE01675E7F4F88E899E04E
:103180000E94F10260ED77E080E090E00E9472051D
:103190000336110509F48DC10436110509F4EEC199
:1031A000CE0143960E94D20DCE0149960E94D20DC7
:1031B000CE014F960E94D20DCE0185960E94D20D6F
:1031C000CE018B960E94D20DCE01C1960E94D20DE7
:1031D0000E94A4050091700610917106209172065C
:1031E00030917306601B710B820B930B693E734029
:1031F0008105910508F41AC180910C026CE173E01D
:10320000882309F47AC380E298E00E94800C10922F
:103210000C0280916F06882309F4EAC040916B0686
:1032200050916C0660916D0670916E0621E0CE01A2
:1032300001960E946E106CE273E0CE0107960E9428
:10324000690FAE014F5F5F4FBE01695F7F4F84E63C
:1032500090E00E94CA0FCE0107960E94D20DCE01C7
:1032600001960E94D20D40916706509168066091C8
:10327000690670916A0621E0CE0101960E946E10E7
:1032800064E373E0CE0107960E94690FAE014F5FC1
:103290005F4FBE01695F7F4F84E690E00E94CA0FD6
:1032A000CE0107960E94D20DCE0101960E94D20D4A
:1032B00020916706309168064091690650916A0630
:1032C00060916B0670916C0680916D0690916E0610
:1032D0000E949D28AB01BC0121E0CE0101960E9415
:1032E0006E106EEF72E0CE0107960E94690FAE017C
:1032F0004F5F5F4FBE01695F7F4F84E690E00E94A1
:10330000CA0FCE0107960E94D20DCE0101960E94EF
:10331000D20D4091630650916406609165067091EC
:10332000660621E0CE0101960E946E106CE373E008
:10333000CE0107960E94690FAE014F5F5F4FBE013D
:10334000695F7F4F84E690E00E94CA0FCE01079626
:103350000E94D20DCE0101960E94D20D40915F06CF
:1033600050916006609161067091620622E0CE0184
:1033700001960E946E106DE473E0CE0107960E94E4
:10338000690FAE014F5F5F4FBE01695F7F4F84E6FB
:1033900090E00E94CA0FCE0107960E94D20DCE0186
:1033A00001960E94D20D409108025091090260914D
:1033B0000A0270910B0222E0CE0101960E946E106B
:1033C0006AE573E0CE0107960E94690FAE014F5F78
:1033D0005F4FBE01695F7F4F84E690E00E94CA0F95
:1033E000CE0107960E94D20DCE0101960E94D20D09
:1033F00080915E06882381F060915A0670915B0689
:1034000080915C0690915D060E946B0C63E673E010
:103410008DEB98E00E94800C0E94A40560937006DA
:1034200070937106809372069093730680E298E021
:103430000E947603892B09F483C262E572E0CE0113
:1034400007960E94690F0E94A4056B017C010E94EF
:10345000A4056C197D098E099F09643671058105E3
:10346000910508F052C280E298E00E947603892B11
:1034700071F380E298E00E945403682FCE01079612
:103480000E94570EF0CF60E070E0CB01E9CDBE01A5
:10349000615E7F4FCE0149965FCE8F8D98A10097D8
:1034A00021F00E94E2228B0159CE60E070E0CB0156
:1034B000FACF65E972E0CE0101960E94690FBE0164
:1034C0006F5F7F4FCE0149960E94570D8C01CE0150
:1034D00001960E94D20D17FD63CE62E572E0CE0127
:1034E00007960E94690F6BE972E0CE0101960E9477
:1034F000690FAE01495F5F4FBE016F5F7F4F83E68B
:1035000090E00E94CA0FCE0101960E94D20DCE011A
:1035100007960E94D20D81E080936F0664EF71E000
:1035200080E090E00E94720563EA72E0CE010D96A1
:103530000E94690FBE01635F7F4FCE0107960E9414
:10354000D90E69EA72E0CE0101960E94690FAE01C0
:10355000495F5F4FBE016F5F7F4F84E690E00E943E
:10356000CA0FCE0101960E94D20DCE0107960E948D
:10357000D20DCE010D960E94D20D12CE69ED72E0F1
:10358000CE0149960E94720D8823A1F0CE01439688
:103590000E94A80CAB01BC01CE0101960E9438111B
:1035A000BE016F5F7F4F80E298E00E94940CCE01D5
:1035B0000196E1CF6CEE72E0CE0149960E94720D49
:1035C000882381F0CE0143960E94A80CAB01BC0178
:1035D000CE0101960E943811BE016F5F7F4F83E8D4
:1035E00097E0E3CF67EB72E0CE0149960E94720D3F
:1035F000882309F496C01092550610925006109236
:103600004F06CE0143960E94A80C4B015C018092AC
:103610005A0690925B06A0925C06B0925D06C0903E
:103620000802D0900902E0900A02F0900B0220E01C
:1036300030E048EC52E460914B0670914C0680916A
:103640004D0690914E060E940929A70196010E94FD
:1036500089272B013C0120E030E048EC52E4C50111
:10366000B4010E940929A70196010E948927A3019C
:1036700092010E949C286FAB78AF89AF9AAFA501E9
:10368000940160E070E088EC92E40E949C2820E0C5
:1036900030E048EC52E40E940929A70196010E94FB
:1036A0008927A30192010E949D286B017C010E9441
:1036B0006B0C6FA978AD89AD9AAD0E946B0CB70108
:1036C000A601CE0101960E943811BE016F5F7F4FA7
:1036D00083E897E00E94940CCE0101960E94D20DDF
:1036E0004FA958AD69AD7AADCE0101960E9438114F
:1036F000BE016F5F7F4F80E298E00E94940CCE0184
:1037000001960E94D20D81E080935E060E94A4057E
:10371000609351067093520680935306909354061B
:103720003FCD6EEB72E0CE0149960E94720D882368
:1037300019F00E94221134CD64EC72E0CE0149965A
:103740000E94720D882319F00E940C1129CD6CEC97
:1037500072E0CE0149960E94720D882339F140E053
:1037600050E0BA01CE0101960E943811BE016F5F90
:103770007F4F83E897E00E94940CCE0101960E944F
:10378000D20D40E050E0BA01CE0101960E943811FE
:10379000BE016F5F7F4F80E298E00E94940CCE01E3
:1037A00001960E94D20D10925E06FACC64ED72E092
:1037B000CE0149960E94720D882399F16CED72E05A
:1037C0008DEB98E00E94800CC0900802D090090216
:1037D000E0900A02F0900B0220E030E040E251E479
:1037E000C701B6010E94B129181634F4C12CD12C9E
:1037F00060E2E62E61E4F62EB701A601CE01019645
:103800000E943811BE016F5F7F4F80E298E00E94F6
:10381000940CCE0101960E94D20D40E050E0BA0116
:10382000D7CE67EE72E0CE0149960E94720D8823D2
:1038300099F16FEE72E08DEB98E00E94800C40E011
:1038400050E0BA01CE0101960E943811BE016F5FAF
:103850007F4F80E298E00E94940CCE0101960E9476
:10386000D20DC0900802D0900902E0900A02F090B8
:103870000B0220E030E040E251E4C701B6010E94B3
:10388000B129181634F4C12CD12C50E2E52E51E4A4
:10389000F52EB701A6019CCE6AEF72E0CE014996E3
:1038A0000E94720D882399F0CE0143960E94A80CC5
:1038B000609308027093090280930A0290930B02AE
:1038C00068E072E080E290E00E94DC1069CC68E081
:1038D00073E0CE0149960E94720D882339F066E6A6
:1038E00079E086EE96E00E94F1025ACC6EE073E039
:1038F0008DEB98E00E94800C53CC83E897E00E9407
:10390000800C81E080930C0284CCBE01695F7F4F04
:10391000CE0101960E94D90ECE0101960E94E20EC0
:1039200060936B0670936C0680936D0690936E06A1
:10393000CE0101960E94D20DCE0107960E94D20DB3
:1039400083E897E00E947603892B09F440C062E582
:1039500072E0CE0107960E94690F0E94A4056B01D8
:103960007C010E94A4056C197D098E099F096436AB
:1039700071058105910580F483E897E00E94760344
:10398000892B79F383E897E00E945403682FCE01D6
:1039900007960E94570EF0CFBE01695F7F4FCE01A0
:1039A00001960E94D90ECE0101960E94E20E60930C
:1039B0006706709368068093690690936A06CE0145
:1039C00001960E94D20DCE0107960E94D20D82E090
:1039D0000E942B090E945A020091490610914A0642
:1039E0009801220F331F220F331FA90147545B4F49
:1039F0007A0120E030E04AE754E40E948927D701A9
:103A00006D937D938D939C9313970F5F1F4F10932E
:103A10004A06009349060436110509F02BC209EB4A
:103A200014E060E070E0CB01F80121913191419107
:103A300051918F010E949D2829E436E0201731071B
:103A400099F710924A061092490620E030E048ECBF
:103A500052E40E9409296093B5047093B6048093E0
:103A6000B7049093B804C090B104D090B204E09031
:103A7000B304F090B404A70196010E949C284B0166
:103A80005C01A70196016091000270910102809192
:103A90000202909103020E949C289B01AC01C50187
:103AA000B4010E94092920E030E048EC52E40E9471
:103AB000892720E030E040E251E40E9489276B0131
:103AC0007C0120E030E0A9010E94B12920E030E033
:103AD00040E05FE387FD25C0C701B6010E949D2835
:103AE0000E947B290E942A2720E030E040E251E436
:103AF0000E9409296B017C0120E030E04AEC52E48D
:103B00000E94B129181694F480E090E0AAECB2E487
:103B10008093630690936406A0936506B09366064F
:103B200017C0C701B6010E949C28DACF20E030E020
:103B300040E85FEBC701B6010E94232787FD64C3FD
:103B4000C0926306D0926406E0926506F092660623
:103B50008090630690906406A0906506B09066061B
:103B600020E030E0A9016091AD047091AE04809135
:103B7000AF049091B0040E942327811108C0809265
:103B8000AD049092AE04A092AF04B092B004409005
:103B9000AD045090AE046090AF047090B004A501E5
:103BA0009401C301B2010E949C286B017C0120E0BA
:103BB00030E0A9010E94B129181624F0F7FAF09418
:103BC000F7F8F09420E030E040E05FE3C701B60191
:103BD0000E94232718160CF41CC323E333E343E7A6
:103BE0005FE3C501B4010E9489276B017C012DECC4
:103BF0003CEC4CE45DE3C301B2010E9489279B01C8
:103C0000AC01C701B6010E949D28609363067093C2
:103C10006406809365069093660680915506882316
:103C200081F080915A0690915B06A0915C06B0915C
:103C30005D068093630690936406A0936506B09337
:103C400066068091AB049091AC04FC01EE0FFF1F5F
:103C5000EE0FFF1FED51FC4F40916306509164063B
:103C60006091650670916606408351836283738319
:103C700001968233910509F4FEC29093AC048093BF
:103C8000AB0443EE53E029965FAF4EAF299710E0A7
:103C900000E0312C212C1FAE21961FAE21972296D9
:103CA0001FAE229723961FAE23971BAE1CAE1DAEF0
:103CB0001EAE1FAA18AE19AE1AAE27961CAE1DAEC8
:103CC0001EAE1FAE27972996AEADBFAD2997CD90FA
:103CD000DD90ED90FD902996BFAFAEAF29972BAD4B
:103CE0003CAD4DAD5EAD232B242B252B09F4CDC26D
:103CF000212F302F432D522DC701B6010E942327BB
:103D000087FF04C01C2D0D2D3E2C2F2C2FAD21968E
:103D10003FAD219722964FAD229723965FAD239713
:103D2000C701B6010E94B12918160CF4BDC2A70143
:103D300096016FA978AD89AD9AAD0E949D286FABB1
:103D400078AF89AF9AAF8BAC9CACADACBEAC3FEF5B
:103D5000831A930AA30AB30A41E084169104A104CA
:103D6000B10409F48DC2C501B4010E942A272B01B8
:103D70003C01AC019B016FA978AD89AD9AAD0E9461
:103D80000929A70196010E949C286B017C01AC01C6
:103D90009B01C301B2010E948927A70196010E94DD
:103DA00089272B013C016BAD7CAD8DAD9EAD0E9492
:103DB0002A279B01AC01C301B2010E9409299B0182
:103DC000AC0127966CAD7DAD8EAD9FAD27970E945F
:103DD0009D2827966CAF7DAF8EAF9FAF279752E39C
:103DE00085169104A104B10409F04AC2C092A40945
:103DF000D092A509E092A609F092A709DC01CB01B7
:103E00008093B4099093B509A093B609B093B7090C
:103E10002FA938AD49AD5AAD2093A8093093A9090F
:103E20004093AA095093AB098092A0099092A109EE
:103E3000A092A209B092A3098FAD21969FAD2197C0
:103E40002296AFAD22972396BFAD23978093B009FA
:103E50009093B109A093B209B093B309812F902F29
:103E6000A32DB22D8093AC099093AD09A093AE0918
:103E7000B093AF090E94A405009156061091570611
:103E80002091580630915906601B710B820B930BE1
:103E9000693E73408105910508F4A0C281E00E944B
:103EA0002B090E945A026B017C0169E673E08DEBDD
:103EB00098E00E94F50AC701B6010E946B0C20E051
:103EC00030E048EC52E4C701B6010E9489276B013B
:103ED0007C0120E030E0A9010E94B12920E030E01F
:103EE00040E05FE387FDEBC1C701B6010E949D285A
:103EF0000E947B290E942A2720E030E048EC52E40F
:103F00000E9409296B017C012EEA37E441E85FE356
:103F10000E94232787FF06C0C12CD12C80E8E82E01
:103F20008FE3F82E20E030E040E85FE3C701B60100
:103F30000E949C2820E030E04AE753E40E94892751
:103F40006B017C0120E030E040E450E40E94232734
:103F500087FF03C0C12CD12C7601C0925F06D0929E
:103F60006006E0926106F09262060E94110A60E02B
:103F700080E00E94BA0A4091630650916406609105
:103F800065067091660621E0CE0101960E946E10D2
:103F9000BE016F5F7F4F88E899E00E94F102CE0179
:103FA00001960E94D20D60E08AE00E94BA0A409118
:103FB0006B0650916C0660916D0670916E0622E062
:103FC000CE0101960E946E10BE016F5F7F4F88E8A0
:103FD00099E00E94F102CE0101960E94D20D61E0AB
:103FE00080E00E94BA0A40915F065091600660919D
:103FF00061067091620622E088E899E00E947D0BDC
:1040000061E08AE00E94BA0A409167065091680612
:104010006091690670916A0622E0CE0101960E94C5
:104020006E10BE016F5F7F4F88E899E00E94F10239
:10403000CE0101960E94D20D80915E06882309F47C
:1040400087C2C0906306D0906406E0906506F09049
:10405000660680905A0690905B06A0905C06B09031
:104060005D060E94A4050091510610915206209110
:10407000530630915406601B710B820B930B009119
:1040800004021091050220910602309107020617E2
:1040900017072807390708F097C16091A0097091A8
:1040A000A1098091A2099091A30916161706180676
:1040B0001906C4F40E942A279B01AC016091B4093F
:1040C0007091B5098091B6099091B7090E940929AC
:1040D0000E94BC292AE037ED43EA5DE30E942327D2
:1040E00087FF72C1A5019401C701B6010E949C28F7
:1040F0006B017C0120E030E0A9010E94B129181673
:104100000CF0E2C02DEC3CEC4CEC5DE3C701B601D9
:104110000E94232718160CF4E1C081E08093550615
:1041200020E030E0A901C701B6010E94B1291816AC
:104130000CF0D7C02DEC3CEC4CEC5DE3C701B601B4
:104140000E94B12918160CF4D6C062E572E0CE01C7
:1041500007960E94690F66E773E0CE0101960E9400
:10416000690FAE01495F5F4FBE016F5F7F4F84E60D
:1041700090E00E94CA0FCE0101960E94D20DCE019E
:1041800007960E94D20D20E030E048EC52E46091A6
:104190005A0670915B0680915C0690915D060E94C4
:1041A0000929209108023091090240910A02509198
:1041B0000B020E94892720916B0630916C0640917A
:1041C0006D0650916E060E949C2820E030E040E28F
:1041D00051E40E94892760934B0670934C068093AC
:1041E0004D0690934E0665E873E08DEB98E00E94D3
:1041F000F50A60914B0670914C0680914D069091A6
:104200004E060E946B0CD6C080E090E0A0E8BFEBA9
:104210007FCC20E030E040E85FE3C701B6010E94B8
:10422000232787FF0FC02DEC3CEC4CE45FE3C50176
:10423000B4010E9489276B017C012DEC3CEC4CE41D
:104240005EE3D9CC20E030E040E050E4C701B601A5
:104250000E94232787FFE1CC20E030E040E05FE3CD
:10426000C501B4010E9489276B017C0120E030E088
:1042700040E05FE3C0CC1092AC041092AB0401CDDF
:104280008BAE9CAEADAEBEAE1ECD1C2D0D2D3E2C0C
:104290002F2CCFAE2196DFAE21972296EFAE22973C
:1042A0002396FFAE239743CDCFAE2196DFAE219765
:1042B0002296EFAE22972396FFAE239738CDC70103
:1042C000B6010E949C2814CE2DEC3CEC4CEC5DEB2E
:1042D000C701B6010E94B12987FF1FCF1092550672
:1042E0001FCF2DEC3CEC4CEC5DEBC701B6010E94FE
:1042F000232787FF2ACF80914F0690915006019681
:104300009093500680934F0623E333E343E75FE344
:10431000C701B6010E94892720E030E048EC52E452
:104320000E940929209108023091090240910A0255
:1043300050910B020E9489276B017C01AC019B010B
:1043400060916B0670916C0680916D0690916E067F
:104350000E949C284B015C01209167063091680601
:104360004091690650916A06C701B6010E949D28D6
:10437000AB01BC01CE0101960E943811BE016F5FF6
:104380007F4F83E897E00E94940CCE0101960E9433
:10439000D20DB501A401CE0101960E943811BE01D3
:1043A0006F5F7F4F80E298E00E94940CCE010196EF
:1043B0000E94D20D0E94A40560935106709352068C
:1043C00080935306909354060E94A405609356066A
:1043D00070935706809358069093590686E00E9482
:1043E000C504892B31F540E050E0BA01CE010196B9
:1043F0000E943811BE016F5F7F4F83E897E00E94F3
:10440000940CCE0101960E94D20D40E050E0BA011A
:10441000CE0101960E943811BE016F5F7F4F80E28E
:1044200098E00E94940CCE0101960E94D20D109249
:104430005E0687E00E94C504892B11F40E942211B8
:1044400088E00E94C504892B11F40E940C1189E0B8
:104450000E94C504892BC1F50E94110A89E00E94BF
:10446000C5040E94500B60ED77E080E090E00E9470
:1044700072050E94110A40E050E0BA01CE01019697
:104480000E943811BE016F5F7F4F80E298E00E946A
:10449000940CCE0101960E94D20D409108025091D9
:1044A000090260910A0270910B02CE0101960E94EE
:1044B0003811BE016F5F7F4F83E897E00E94940C34
:1044C000CE0101960E94D20D8AE00E94C504892B7C
:1044D000C1F50E94110A8AE00E94C5040E94500B97
:1044E00060ED77E080E090E00E9472050E94110A82
:1044F000409108025091090260910A0270910B02EA
:10450000CE0101960E943811BE016F5F7F4F80E29D
:1045100098E00E94940CCE0101960E94D20D40E0DA
:1045200050E0BA01CE0101960E943811BE016F5FC2
:104530007F4F83E897E00E94940CCE0101960E9481
:10454000D20D8BE00E94C5040E9439040C947817A8
:1045500080915506882309F437CF1092550634CF41
:1045600086E699E00E94D20D8CE699E00E94D20D79
:1045700082E799E00E94D20D88E799E00C94D20D71
:10458000EF920F931F93CF93DF93E80134E047FD41
:1045900034E1042E000C550B57FF03C05195419593
:1045A0005109E32E022F242FAE010E944323CE0196
:1045B000DF91CF911F910F91EF9008956627772794
:1045C0000C94BC241F93FC0199278827BC01E89414
:1045D00011911032E9F3193010F01E30C8F31B327C
:1045E00051F01D3249F4689406C00E941423610FF3
:1045F000711D811D911D119110531A30B0F33EF4BD
:1046000090958095709561957F4F8F4F9F4F1F912B
:104610000895BB274A3031F4992322F4BDE29095E6
:1046200081959F4F0C942A23592F482F372F262FDF
:10463000660F771F881F991F660F771F881F991FA6
:10464000620F731F841F951F660F771F881F991FA6
:104650000895BB27FB015527AA27880F991FAA1F7A
:10466000A41710F0A41B83955051B9F7A05DAA338D
:1046700008F0A95DA193009779F7B111B193119258
:10468000CB010C9413278F929F92AF92BF92CF923F
:10469000DF92EF92FF920F931F93CF93DF9300D09F
:1046A00000D000D0CDB7DEB76A01F22EB02E102FA9
:1046B000FBE3AF2EA01608F41BE31F5F012F27E0DA
:1046C000AE014F5F5F4F0E941A26BC018981982F6F
:1046D0009970913009F44EC09BE2E1FC04C09E2D1C
:1046E0009170E0FC49C05E2D5071E82FE87083FFA7
:1046F00055C084E0911101C083E0EF2DE81B8F15B8
:1047000008F0E0E0D6018E2F20E25523C9F199236D
:1047100029F0D6019C93C60101966C0196012D5F8C
:104720003F4FE2FE33C08EE4D6018C9391E41196A4
:104730009C93119712968C93D9018E2F90E2811140
:104740002AC0E20FF32FF11D10828EEF9FEF299602
:104750000FB6F894DEBF0FBECDBFDF91CF911F9192
:104760000F91FF90EF90DF90CF90BF90AF909F9010
:104770008F9008959DE2B7CF90E2B5CF2D938150F1
:104780008111FCCFCE0ED11CE0E0C1CF8EE6D60168
:104790008C9391E6CCCF9D938150D1CF482F44701C
:1047A00082FF3DC084E0911101C083E08F1510F4B9
:1047B000EF2DE81BD6018E2F20E2552309F1992316
:1047C00029F0D6019C93C60101966C0196012D5FDC
:1047D0003F4FE2FE1BC089E4D6018C938EE4119614
:1047E0008C93119786E412968C93D9018E2F90E2C8
:1047F000882309F4A6CF9D938150FACF2D93815041
:104800008111FCCFCE0ED11CE0E0D9CF89E6D601D4
:104810008C938EE611968C93119786E6E4CF9B01DC
:1048200077FF02C030E020E0A1E0B0E0911102C0CB
:10483000B0E0A0E0F9013196AE0FBF1F8B2C912C98
:10484000BB2009F461C05401EFEFAE1ABE0AAA0DF5
:10485000BB1DFA161B0619F014F04F2D4A1B5111FF
:1048600088C0E3FC59C07601A42FB0E2A1114FC06B
:10487000C40ED11C992309F45BC040E0D601119607
:10488000F60190836D01552309F448C0012F060FEE
:104890009A81582F507184FF03C0913309F401505D
:1048A00010160CF047C0093008F008E0EEE2FE2ECA
:1048B0005B01A01AB10885019194819491082F3F62
:1048C000320729F4D601FC92F60131966F01621786
:1048D000730794F1021713077CF5DB01A21BB30BDE
:1048E000AA24A394B12CAC0EBD1EAA0DBB1D11961B
:1048F0008C9121503109D601119628153905F4F013
:10490000F60180836D01DBCFB12CA12CA0CFF70184
:10491000B1937F01A150AACF9111B0CFD601942FAE
:1049200050E302C05D9391509111FCCFC40ED11C95
:1049300040E0ACCF01E0BACF80E3DBCF6217730772
:1049400031F4963388F4953311F4552369F0F60168
:104950008083FD01842F90E2811108C0A40FB11D56
:104960001C9290E080E0F3CE81E3F1CF91938150EF
:10497000F3CF911183CF8ACF8F929F92AF92BF9244
:10498000CF92DF92EF92FF920F931F93CF93DF931B
:104990005C017B016115710519F0DB018D939C931E
:1049A00085010F5F1F4FF501D0818D2F90E00E9490
:1049B000F2266C01892BB9F5DD32B9F50F5F1F4F77
:1049C000D5011196DC91C1E05801F1E0AF1AB108B0
:1049D00043E050E060E871E0C5010E94FB26892BAE
:1049E00069F5680182E0C80ED11C45E050E06BE734
:1049F00071E0C6010E94FB26892B21F4680197E033
:104A0000C90ED11CE114F10419F0D701CD92DC924A
:104A100060E070E080E89FEFC111FFC060E070E0EF
:104A200080E89FE7FAC05801BBCFDB3229F485014B
:104A30000E5F1F4FF501D181C0E0C6CF43E050E0CB
:104A400068E771E0C5010E94FB26892BE9F0F801B7
:104A500010E000E020E030E0A9015F01B0ED8B2E16
:104A60008D0E89E08815C8F19C2E689491F88C2FE2
:104A70008870C2FF16C0811102C00F5F1F4F3196B0
:104A8000D501DC91C92DE9CFE114F10429F00E5FC5
:104A90001F4FF7011183008360E070E080EC9FE717
:104AA000BCC0882311F001501109A5E0B0E00E94BC
:104AB00060289B01AC01220F331F441F551F280D96
:104AC000311D411D511D283999E93907490799E1DF
:104AD0005907A8F2C6609C2ED2CFAEEF8A1206C04C
:104AE000C3FD3CC09C2E689493F8C9CFDF7DD534BC
:104AF000A9F580818D3239F4C061DF011296818180
:104B000062E070E006C0DF018B32C1F3119661E014
:104B100070E080535D01A61AB70A8A30F8F4E0E825
:104B2000CE16ECE0DE065CF4B601660F771F660F6A
:104B3000771FC60ED71ECC0CDD1CC80ED11C5D0124
:104B4000FFEFAF1ABF0A8C9180538A30A8F1C4FFDF
:104B500003C0D194C194D1080C0D1D1DC1FF09C023
:104B6000E114F10431F081E0A81AB108D701AD9247
:104B7000BC92CA01B9010E942827C370C33009F44E
:104B800090584B015C0120E030E0A9010E942327EE
:104B9000882309F440C0CFEAD1E017FF05C0119582
:104BA00001951109C7E9D1E06E01B8E1CB1AD1082E
:104BB00080E2E82EF12C0FC0D501B1CFFE01259186
:104BC0003591459154910E191F09C501B4010E94F8
:104BD00089274B015C01D501C4010E151F0574F72F
:104BE0002497F594E794CC16DD06A9F78A2F880F51
:104BF0008B2F881F8F3F49F020E030E0A901C501CD
:104C0000B4010E942327811106C082E290E09093B4
:104C1000B9098093B809C501B401DF91CF911F9103
:104C20000F91FF90EF90DF90CF90BF90AF909F904B
:104C30008F900895283008F027E03327DA01990F84
:104C4000311D87FD916000966105710539F4326070
:104C50002E5F3D9330E32A95E1F708959F3F30F0B2
:104C600080387105610509F03C5F3C5F3D939130F0
:104C700008F08068911DDF93CF931F930F93FF92ED
:104C8000EF92192F987F9695E92F96959695E90FB3
:104C9000FF27E35FFD4F99273327EE24FF24A70169
:104CA000E70105900894079428F4360FE71EF81ED4
:104CB000491F511D660F771F881F991F0694A1F782
:104CC0000590079428F4E70EF81E491F561FC11DD2
:104CD000770F881F991F661F0694A1F70590079408
:104CE00028F4F80E491F561FC71FD11D880F991FA2
:104CF000661F771F0694A1F70590079420F4490FCB
:104D0000561FC71FD81F990F661F771F881F06944D
:104D1000A9F784911095177041F0D695C7955795CE
:104D20004795F794E7941A95C1F7E3EBF1E068949F
:104D30001590159135916591959105907FE2739548
:104D4000E118F10A430B560BC90BD009C0F7E10C6F
:104D5000F11E431F561FC91FD01D7EF4703311F47E
:104D60008A95E6CFE894015030F0080F0AF4002746
:104D7000021708F4202F2395022F7A3328F079E3C5
:104D80007D932A95E9F710C07D932A9589F60694BC
:104D900097956795379517951794E118F10A430B86
:104DA000560BC90BD00998F023957E9173957A33F1
:104DB00008F070E37C932013B8F77E9170617D93C7
:104DC00030F0839571E37D9370E32A95E1F7112428
:104DD000EF90FF900F911F91CF91DF91992787FD61
:104DE0009095089591110C94F627803219F089500E
:104DF0008550C8F70895FB01DC014150504088F010
:104E00008D9181341CF08B350CF4805E659161349A
:104E10001CF06B350CF4605E861B611171F3990B0D
:104E20000895881BFCCFDC01FC01672F719177236B
:104E3000E1F7329704C07C916D9370836291AE1755
:104E4000BF07C8F308950E94652708F481E008951C
:104E5000E89409C097FB3EF4909580957095619514
:104E60007F4F8F4F9F4F9923A9F0F92F96E9BB27CA
:104E70009395F695879577956795B795F111F8CF46
:104E8000FAF4BB0F11F460FF1BC06F5F7F4F8F4FB1
:104E90009F4F16C0882311F096E911C0772321F0A7
:104EA0009EE8872F762F05C0662371F096E8862F3F
:104EB00070E060E02AF09A95660F771F881FDAF796
:104EC000880F9695879597F90895990F0008550FC3
:104ED000AA0BE0E8FEEF16161706E807F907C0F080
:104EE00012161306E407F50798F0621B730B840B88
:104EF000950B39F40A2661F0232B242B252B21F462
:104F000008950A2609F4A140A6958FEF811D811D01
:104F100008950E949C270C9410280E94022838F0C3
:104F20000E94092820F0952311F00C94F9270C9485
:104F3000FF2711240C9444280E94212870F3959F88
:104F4000C1F3950F50E0551F629FF001729FBB2780
:104F5000F00DB11D639FAA27F00DB11DAA1F649F1C
:104F60006627B00DA11D661F829F2227B00DA11DCF
:104F7000621F739FB00DA11D621F839FA00D611D55
:104F8000221F749F3327A00D611D231F849F600D76
:104F9000211D822F762F6A2F11249F5750409AF09F
:104FA000F1F088234AF0EE0FFF1FBB1F661F771F2B
:104FB000881F91505040A9F79E3F510580F00C94F6
:104FC000F9270C9444285F3FE4F3983ED4F3869588
:104FD00077956795B795F795E7959F5FC1F7FE2B96
:104FE000880F911D9695879597F908959927882799
:104FF000089597F99F6780E870E060E008959FEF5B
:1050000080EC089500240A9416161706180609065F
:10501000089500240A94121613061406050608952E
:10502000092E0394000C11F4882352F0BB0F40F4B6
:10503000BF2B11F460FF04C06F5F7F4F8F4F9F4FF6
:10504000089557FD9058440F551F59F05F3F71F078
:105050004795880F97FB991F61F09F3F79F08795DF
:105060000895121613061406551FF2CF4695F1DF68
:1050700008C0161617061806991FF1CF86957105F8
:10508000610508940895E894BB2766277727CB012C
:1050900097F90895F999FECF92BD81BDF89A9927A5
:1050A00080B50895262FF999FECF1FBA92BD81BD14
:1050B00020BD0FB6F894FA9AF99A0FBE019608959A
:1050C0000E948D28A59F900DB49F900DA49F800DE8
:1050D000911D11240895A1E21A2EAA1BBB1BFD01EC
:1050E0000DC0AA1FBB1FEE1FFF1FA217B307E407C7
:1050F000F50720F0A21BB30BE40BF50B661F771F1F
:10510000881F991F1A9469F76095709580959095FE
:105110009B01AC01BD01CF010895A29FB001B39FD7
:10512000C001A39F700D811D1124911DB29F700DB0
:10513000811D1124911D08955058BB27AA270E9454
:10514000B4280C9410280E94022838F00E940928E4
:1051500020F039F49F3F19F426F40C94FF270EF445
:10516000E095E7FB0C94F927E92F0E94212858F3DA
:10517000BA17620773078407950720F079F4A6F53C
:105180000C9443280EF4E0950B2EBA2FA02D0B01A2
:10519000B90190010C01CA01A0011124FF27591B7C
:1051A00099F0593F50F4503E68F11A16F040A22F82
:1051B000232F342F4427585FF3CF469537952795F3
:1051C000A795F0405395C9F77EF41F16BA0B620BF2
:1051D000730B840BBAF09150A1F0FF0FBB1F661F39
:1051E000771F881FC2F70EC0BA0F621F731F841F7C
:1051F00048F4879577956795B795F7959E3F08F0A2
:10520000B0CF9395880F08F09927EE0F9795879563
:1052100008950E941D290C9410280E94092858F016
:105220000E94022840F029F45F3F29F00C94F927EE
:1052300051110C9444280C94FF270E94212868F3F4
:105240009923B1F3552391F3951B550BBB27AA273F
:1052500062177307840738F09F5F5F4F220F331F79
:10526000441FAA1FA9F335D00E2E3AF0E0E832D041
:1052700091505040E695001CCAF72BD0FE2F29D044
:10528000660F771F881FBB1F261737074807AB0716
:10529000B0E809F0BB0B802DBF01FF2793585F4F8B
:1052A0003AF09E3F510578F00C94F9270C9444286D
:1052B0005F3FE4F3983ED4F3869577956795B7956D
:1052C000F7959F5FC9F7880F911D9695879597F978
:1052D0000895E1E0660F771F881FBB1F62177307F1
:1052E0008407BA0720F0621B730B840BBA0BEE1F06
:1052F00088F7E09508950E9482296894B1110C9472
:10530000442808950E94292888F09F5798F0B92FC3
:105310009927B751B0F0E1F0660F771F881F991FEA
:105320001AF0BA95C9F714C0B13091F00E94432821
:10533000B1E008950C944328672F782F8827B85F31
:1053400039F0B93FCCF3869577956795B395D9F742
:105350003EF490958095709561957F4F8F4F9F4F4C
:1053600008950E94652708F48FEF089519F416F444
:105370000C94FF270C94012A0E942928B8F3992342
:10538000C9F3B6F39F57550B87FF0E940F2A0024DD
:10539000A0E640EA900180585695979528F4805CE5
:1053A000660F771F881F20F026173707480730F44D
:1053B000621B730B840B202931294A2BA695179465
:1053C0000794202531254A2758F7660F771F881F35
:1053D00020F026173707480730F4620B730B840B55
:1053E000200D311D411DA09581F7B901842F9158E1
:1053F000880F9695879508950E946527880B990BCD
:1054000008959F3F31F0915020F4879577956795E7
:10541000B795880F911D9695879597F908959150A6
:105420005040660F771F881FD2F70895EE0FFF1FB9
:10543000881F8BBF0790F691E02D19940F931F934F
:10544000CF93DF938230910510F482E090E0E091F9
:10545000BC09F091BD0930E020E0B0E0A0E0309759
:1054600099F42115310509F44AC0281B390B243061
:105470003105D8F58A819B816115710589F1FB01A0
:1054800093838283FE0111C0408151810281138187
:1054900048175907E0F04817590799F4109761F039
:1054A00012960C93129713961C933296CF01DF91AC
:1054B000CF911F910F9108950093BC091093BD09DE
:1054C000F4CF2115310551F04217530738F0A901E7
:1054D000DB019A01BD01DF01F801C1CFEF01F9CF76
:1054E0009093BD098093BC09CDCFFE01E20FF31F5D
:1054F000819391932250310939832883D7CF20910A
:10550000BA093091BB09232B41F42091100230914C
:1055100011023093BB092093BA0920910E023091F9
:105520000F022115310541F42DB73EB7409112020B
:1055300050911302241B350BE091BA09F091BB097D
:10554000E217F307A0F42E1B3F0B2817390778F05A
:10555000AC014E5F5F4F2417350748F04E0F5F1FB9
:105560005093BB094093BA09819391939FCFF0E088
:10557000E0E09CCFCF93DF930097E9F0FC013297F6
:1055800013821282A091BC09B091BD09ED0130E0F7
:1055900020E01097A1F420813181820F931F209188
:1055A000BA093091BB092817390709F061C0F09397
:1055B000BB09E093BA09DF91CF910895EA01CE17B4
:1055C000DF07E8F54A815B819E0141155105B1F77E
:1055D000E901FB83EA8349915991C40FD51FEC1768
:1055E000FD0761F4808191810296840F951FE90186
:1055F00099838883828193819B838A83F0E0E0E0B2
:1056000012968D919C9113970097B9F52D913C912D
:105610001197CD010296820F931F2091BA09309104
:10562000BB092817390739F6309751F51092BD0993
:105630001092BC09B093BB09A093BA09BCCFD38325
:10564000C28340815181840F951FC817D90761F427
:105650004E5F5F4F88819981480F591F5183408366
:105660008A819B81938382832115310509F0B0CF14
:10567000F093BD09E093BC099ECFFD01DC01C0CFD2
:1056800013821282D7CF4F925F926F927F928F9246
:105690009F92AF92BF92CF92DF92EF92FF920F93C1
:1056A0001F93CF93DF938C01009799F4CB01DF9187
:1056B000CF911F910F91FF90EF90DF90CF90BF900F
:1056C000AF909F908F907F906F905F904F900C94D1
:1056D0001E2AFC01E60FF71F9C0122503109E21738
:1056E000F30708F4AEC0D901CD91DC911197C6172C
:1056F000D70720F1C530D10578F0CE010497861781
:10570000970750F0C61BD70B2297C193D1936D9387
:105710007C93CF010E94BA2AC801DF91CF911F91DB
:105720000F91FF90EF90DF90CF90BF90AF909F9040
:105730008F907F906F905F904F9008955B01AC1AAF
:10574000BD0A4C018C0E9D1EA091BC09B091BD09F3
:10575000512C412CF12CE12C109731F58091BA0994
:105760009091BB098815990509F05CC0461657064B
:1057700008F058C080910E0290910F02009741F4FA
:105780008DB79EB74091120250911302841B950B66
:10579000E817F90708F055C0F093BB09E093BA0980
:1057A000F90171836083B8CF8D919C911197129606
:1057B0006C90129713967C901397A815B90559F51C
:1057C0006C0142E0C40ED11CCA14DB0420F1AC0110
:1057D0004A195B09DA011296159780F0628273828A
:1057E00051834083D9016D937C93E114F10471F0EE
:1057F000D7011396FC93EE9312978ECF22968C0FBF
:105800009D1FF90191838083F301EFCFF093BD09D0
:10581000E093BC0981CF4816590608F42C017D019C
:10582000D3019ACFCB010E941E2A7C01009749F038
:10583000AE01B8010E942C2CC8010E94BA2A87012F
:105840006BCF10E000E068CF9111089581568A5126
:1058500008F4805285580895FB01DC0102C00190D4
:105860000D9241505040D8F70895FB01DC018D9115
:10587000019080190110D9F3990B0895FB01DC0107
:1058800001900D920020E1F70895FB01DC014150E9
:10589000504048F001900D920020C9F701C01D92C0
:1058A00041505040E0F70895FB0151915523A9F074
:1058B000BF01DC014D9145174111E1F759F4CD01CC
:1058C0000190002049F04D9140154111C9F3FB01B1
:1058D0004111EFCF81E090E00197089511E0C8EE0B
:1058E000D1E000E006C0802FFE010E94162A21961A
:1058F000011DC93ED10780E00807A9F7F894FFCF42
:1059000000007A44983A00000000204101010000A4
:10591000BE09800000000000CC03FF02450319040B
:1059200076035403680300000000A20775070A0805
:105930004B076E075B074C0700000000C90AFF0217
:105940000A08F0026E616E00696E66006F7666008E
:105950000D0A0040003A003A3036383030313031EC
:10596000323100214C302E300D0021483130302EA4
:10597000300D0021520D0054465F003A303538306A
:10598000303130313034303000240072657175654B
:1059900073743A2000535441525400434F4E4E45C5
:1059A000435400504D31314500414E414C5953450F
:1059B000525F54595045005345545F4F3200534590
:1059C000545F30005345545F313030004F46465FDE
:1059D000414C4C00504153535F4F32007061737320
:1059E000696E67206F3200504153535F4E32007032
:1059F000617373696E67206E32005345545F544F74
:105A000054414C464C4F5700524553455400777211
:105A10006F6E6720636F6D6D616E64003A3036386B
:105A20003030343031323130313230004F325F4635
:105A30004C4F57004E325F464C4F57004F325F433A
:105A40004F4E43454E54524154494F4E00414E41F2
:105A50004C59534552464C4F5700464C4F575F5395
:105A6000455400232323232300616E616C2E20768E
:105A70006F6C743A2000504F494E545F414348497F
:105A800045564544004D4643206572726F723A2078
:025A9000000014
:00000001FF
